:030000000208648F
:0C086400787FE4F6D8FD7581120204567E
:100006007FBFDFEFF7FBFDFE0000001818000000C1
:1000160000003C3C3C3C0000007E7E7E7E7E7E00F6
:10002600FFFFFFFFFFFFFFFF0000000000000000D2
:1000360000000000000000000000000000000000BA
:1000460000000000000000000000000000000000AA
:10005600000000000000000000000000000000009A
:10006600000000000000000000000000000000008A
:10007600000000000000000000000000000000007A
:10008600000000000000000000000000000000006A
:100096000000000000000000FFFFFFFFFFFFFFFF62
:1000A600007E7E7E7E7E7E0000003C3C3C3C000066
:1000B600000000181800000000000000000000000A
:1000C600000000000000000000000000000000002A
:1000D600000000000000000000000000000000001A
:1000E600000000000000000000000000000000000A
:1000F60000000000000000000000000000000000FA
:1001060000000000000000000000000000000000E9
:1001160000000000000000000000000000000000D9
:1001260000000000000000000000000008000000C1
:100136000000000808000000000000180800000089
:100146000000001818000000000000181810000039
:10015600000000181818000000000018181C000005
:10016600000000181C1C00000000001C1C1C0000E5
:100176000000041C1C1C000000000C1C1C1C0000C1
:1001860000001C1C1C1C000000003C1C1C1C000069
:1001960000003C3C1C1C000000003C3C3C1C0000D9
:1001A60000003C3C3C3C000000003C3C3C3C200049
:1001B60000003C3C3C3C300000003C3C3C3C3800F1
:1001C60000003C3C3C3C3C0000003C3C3C3C3E00CF
:1001D60000003C3C3C3E3E0000003C3C3E3E3E00B7
:1001E60000003C3E3E3E3E0000003E3E3E3E3E009F
:1001F60000023E3E3E3E3E0000063E3E3E3E3E0085
:1002060000063E3E3E3E3E00000E3E3E3E3E3E0068
:10021600001E3E3E3E3E3E00003E3E3E3E3E3E0010
:10022600007E3E3E3E3E3E00007E7E3E3E3E3E0020
:10023600007E7E7E3E3E3E00007E7E7E7E3E3E0010
:10024600007E7E7E7E7E3E00007E7E7E7E7E7E0000
:10025600007E7E7E7E7E7E40007E7E7E7E7E7E6010
:10026600007E7E7E7E7E7E70007E7E7E7E7E7E78B8
:10027600007E7E7E7E7E7E7C007E7E7E7E7E7E7E96
:10028600007E7E7E7E7E7E7F007E7E7E7E7E7F7F81
:10029600007E7E7E7E7F7F7F007E7E7E7F7F7F7F6D
:1002A600007E7E7F7F7F7F7F007E7F7F7F7F7F7F59
:1002B600007F7F7F7F7F7F7F017F7F7F7F7F7F7F45
:1002C600037F7F7F7F7F7F7F077F7F7F7F7F7F7F2C
:1002D6000F7F7F7F7F7F7F7F1F7F7F7F7F7F7F7FF8
:1002E6003F7F7F7F7F7F7F7F7F7F7F7F7F7F7F7F58
:1002F600FF7F7F7F7F7F7F7FFFFF7F7F7F7F7F7F88
:10030600FFFFFF7F7F7F7F7FFFFFFFFF7F7F7F7F77
:10031600FFFFFFFFFF7F7F7FFFFFFFFFFFFF7F7F67
:10032600FFFFFFFFFFFFFF7FFFFFFFFFFFFFFFFF57
:10033600000000181800000000003C3C3C3C000097
:1003460000000000000000000000000000000000A7
:100356000000000000000000000000000000000097
:100366000000000000000000000000000000000087
:100376000000000000000000000000000000000077
:100386000000000000000000000000000000000067
:100396000000000000000000000000000000000057
:1003A6000000000000000000000000000000000047
:1003B6000000000000000000000000000000000037
:1003C60000003C3C3C3C0000000000181800000007
:1003D6000000000000000000000000000000000017
:1003E6000000000000000000000000000000000007
:1003F60000000000000000000000000000000000F7
:1004060000000000000000000000000000000000E6
:1004160000000000000000000000000000000000D6
:1004260000000000000000000000000000000000C6
:1004360000000000000000000000000000000000B6
:1004460000000000000000000000000000000000A6
:10077900E4FF1207CBE51090000693F58075F008A9
:10078900E511A4242EF582E5F03401F583E58225EF
:1007990010F582E43583F583E493FF1207CB7F02DA
:0207A9007E00D0
:1007AB00E4FDFCC3ED9FEC9E5015E4FBFA0BBB0084
:0F07BB00010AEB64794A70F50DBD00010C80E472
:0107CA00220C
:1007CB00C2B6C2B5E4FEEFC4131313540124FF9257
:1007DB00B4EF25E0FFD2B60000C2B60EBE08E7D2DA
:0507EB00B50000C2B5DD
:0107F00022E6
:1004560012087B7FA412084BD3EF9446EE9400500B
:1004660003020576E50B540FF50E64067040F51190
:10047600E4F50FE4F510E4FF1207CBE51090000653
:1004860093F580E51175F008A4240EF582E4340096
:100496001207940510E510C3940840DA050FE50F1E
:1004A600C3941E40CE0511E511C3940440C2E50E67
:1004B600640C7040F511E4F50FE4F510E4FF120743
:1004C600CBE51090000693F580E51175F008A4249D
:1004D6009EF582E434001207940510E510C39408D3
:1004E60040DA050FE50FC3941E40CE0511E511C392
:1004F600940440C2E50E64087026F511E4F50FE495
:10050600F5101207790510E510C3940840F4050F9D
:10051600E50FC3940540E80511E511C3944140DC9D
:10052600E50E640E6003020459751141E511D3947A
:10053600005003020459E4F50FE4F510E4FF120736
:10054600CBE51090000693F58075F008E511A4241C
:1005560026F582E5F034011207940510E510C394E0
:100566000840D9050FE50FC3940540CD151180BC91
:10057600E50B540FF50E64067040F511E4F50FE433
:10058600F510E4FF1207CBE51090000693F580E521
:100596001175F008A42436F582E434031207940595
:1005A60010E510C3940840DA050FE50FC3941E400A
:1005B600CE0511E511C3940240C2E50E640C7040ED
:1005C600F511E4F50FE4F510E4FF1207CBE5109002
:1005D600000693F580E51175F008A424C6F582E4BB
:1005E60034031207940510E510C3940840DA050F8A
:1005F600E50FC3941E40CE0511E511C3940240C217
:10060600E50E64087026F511E4F50FE4F5101207FF
:10061600790510E510C3940840F4050FE50FC3945F
:100626000540E80511E511C3941040DCE50E640EA3
:100636006003020459751110E511D39400500302AA
:100646000459E4F50FE4F510E4FF1207CBE510902A
:10065600000693F58075F008E511A42426F582E5D9
:10066600F034011207940510E510C3940840D9052B
:0C0676000FE50FC3940540CD151180BCAA
:040831007F017E00C5
:10083500EF1FAA0670011E4A600BE4FDEDC3940D7F
:0508450050EE0D80F7EC
:01084A00228B
:09087B00D288D2A8D2AFD2B22279
:0300030002068270
:10068200C0E0C083C082C0D075D000C000C002C02C
:0706920004C005C006C0070B
:100699007508007F467E0012083530B203020764F0
:1006A9009003E820B218D3E5829400E583940040D2
:1006B9000D120831E582158270E9158380E520B2B3
:1006C900030207649001F430B218D3E5829400E57F
:1006D900839400400D120831E582158270E9158373
:1006E90080E5E4FC75120090003C20B218D3E58245
:1006F9009400E5839400400D120831E5821582705B
:10070900E9158380E59001F430B223D3E5829400A2
:10071900E583940040181208310508E582158270B6
:10072900021583E508D3941E40DED2A8802D7409F2
:100739002CF8C000E6C313D000F6E508C3940840BE
:100749000874092CF8E64480F67508000512E512CC
:0B075900C3940840920CEC640470890B
:10076400D007D006D005D004D002D000D0D0D0829B
:05077400D083D0E0324B
:0B087000C2B6D2B5D2B4D2B6C2B522D7
:10081500C2B6E4FEEFC4131313540124FF92B4EFE0
:0B08250025E0FFC2B6D2B60EBE08E907
:0108300022A5
:1007F100E4FFFEC2B6FDFCEF25E0FFEE33FED2B60C
:10080100C2B6A2B7E43342070DBD00010CED640C82
:030811004C70E444
:0108140022C1
:10084B00C2B6C2B51208157F06DFFED2B60000C2D3
:08085B00B600001207F1D2B54E
:010863002272
:00000001FF
